{
  "_format": "hh-sol-artifact-1",
  "contractName": "ERC20CNYG",
  "sourceName": "contracts/ERC20CNYG.sol",
  "abi": [
    {
      "inputs": [],
      "stateMutability": "nonpayable",
      "type": "constructor"
    },
    {
      "anonymous": false,
      "inputs": [
        {
          "indexed": false,
          "internalType": "address",
          "name": "account",
          "type": "address"
        }
      ],
      "name": "AddBlacklist",
      "type": "event"
    },
    {
      "anonymous": false,
      "inputs": [
        {
          "indexed": false,
          "internalType": "address",
          "name": "account",
          "type": "address"
        }
      ],
      "name": "AddWhitelist",
      "type": "event"
    },
    {
      "anonymous": false,
      "inputs": [
        {
          "indexed": false,
          "internalType": "address",
          "name": "previousAdmin",
          "type": "address"
        },
        {
          "indexed": false,
          "internalType": "address",
          "name": "newAdmin",
          "type": "address"
        }
      ],
      "name": "AdminChanged",
      "type": "event"
    },
    {
      "anonymous": false,
      "inputs": [
        {
          "indexed": true,
          "internalType": "address",
          "name": "owner",
          "type": "address"
        },
        {
          "indexed": true,
          "internalType": "address",
          "name": "spender",
          "type": "address"
        },
        {
          "indexed": false,
          "internalType": "uint256",
          "name": "value",
          "type": "uint256"
        }
      ],
      "name": "Approval",
      "type": "event"
    },
    {
      "anonymous": false,
      "inputs": [
        {
          "indexed": true,
          "internalType": "address",
          "name": "beacon",
          "type": "address"
        }
      ],
      "name": "BeaconUpgraded",
      "type": "event"
    },
    {
      "anonymous": false,
      "inputs": [
        {
          "indexed": false,
          "internalType": "address",
          "name": "account",
          "type": "address"
        }
      ],
      "name": "FeeCollector",
      "type": "event"
    },
    {
      "anonymous": false,
      "inputs": [
        {
          "indexed": false,
          "internalType": "uint256",
          "name": "amount",
          "type": "uint256"
        }
      ],
      "name": "FeeMaxAmount",
      "type": "event"
    },
    {
      "anonymous": false,
      "inputs": [
        {
          "indexed": false,
          "internalType": "uint256",
          "name": "amount",
          "type": "uint256"
        }
      ],
      "name": "FeeRate",
      "type": "event"
    },
    {
      "anonymous": false,
      "inputs": [
        {
          "indexed": false,
          "internalType": "uint256",
          "name": "amount",
          "type": "uint256"
        }
      ],
      "name": "FeeStartAmount",
      "type": "event"
    },
    {
      "anonymous": false,
      "inputs": [
        {
          "indexed": false,
          "internalType": "uint8",
          "name": "version",
          "type": "uint8"
        }
      ],
      "name": "Initialized",
      "type": "event"
    },
    {
      "anonymous": false,
      "inputs": [
        {
          "indexed": false,
          "internalType": "address",
          "name": "account",
          "type": "address"
        }
      ],
      "name": "Paused",
      "type": "event"
    },
    {
      "anonymous": false,
      "inputs": [
        {
          "indexed": false,
          "internalType": "address",
          "name": "account",
          "type": "address"
        }
      ],
      "name": "RemoveBlacklist",
      "type": "event"
    },
    {
      "anonymous": false,
      "inputs": [
        {
          "indexed": false,
          "internalType": "address",
          "name": "account",
          "type": "address"
        }
      ],
      "name": "RemoveWhitelist",
      "type": "event"
    },
    {
      "anonymous": false,
      "inputs": [
        {
          "indexed": true,
          "internalType": "bytes32",
          "name": "role",
          "type": "bytes32"
        },
        {
          "indexed": true,
          "internalType": "bytes32",
          "name": "previousAdminRole",
          "type": "bytes32"
        },
        {
          "indexed": true,
          "internalType": "bytes32",
          "name": "newAdminRole",
          "type": "bytes32"
        }
      ],
      "name": "RoleAdminChanged",
      "type": "event"
    },
    {
      "anonymous": false,
      "inputs": [
        {
          "indexed": true,
          "internalType": "bytes32",
          "name": "role",
          "type": "bytes32"
        },
        {
          "indexed": true,
          "internalType": "address",
          "name": "account",
          "type": "address"
        },
        {
          "indexed": true,
          "internalType": "address",
          "name": "sender",
          "type": "address"
        }
      ],
      "name": "RoleGranted",
      "type": "event"
    },
    {
      "anonymous": false,
      "inputs": [
        {
          "indexed": true,
          "internalType": "bytes32",
          "name": "role",
          "type": "bytes32"
        },
        {
          "indexed": true,
          "internalType": "address",
          "name": "account",
          "type": "address"
        },
        {
          "indexed": true,
          "internalType": "address",
          "name": "sender",
          "type": "address"
        }
      ],
      "name": "RoleRevoked",
      "type": "event"
    },
    {
      "anonymous": false,
      "inputs": [
        {
          "indexed": true,
          "internalType": "address",
          "name": "from",
          "type": "address"
        },
        {
          "indexed": true,
          "internalType": "address",
          "name": "to",
          "type": "address"
        },
        {
          "indexed": false,
          "internalType": "uint256",
          "name": "value",
          "type": "uint256"
        }
      ],
      "name": "Transfer",
      "type": "event"
    },
    {
      "anonymous": false,
      "inputs": [
        {
          "indexed": false,
          "internalType": "address",
          "name": "account",
          "type": "address"
        }
      ],
      "name": "Unpaused",
      "type": "event"
    },
    {
      "anonymous": false,
      "inputs": [
        {
          "indexed": true,
          "internalType": "address",
          "name": "implementation",
          "type": "address"
        }
      ],
      "name": "Upgraded",
      "type": "event"
    },
    {
      "inputs": [],
      "name": "DEFAULT_ADMIN_ROLE",
      "outputs": [
        {
          "internalType": "bytes32",
          "name": "",
          "type": "bytes32"
        }
      ],
      "stateMutability": "view",
      "type": "function"
    },
    {
      "inputs": [],
      "name": "MINTER_ROLE",
      "outputs": [
        {
          "internalType": "bytes32",
          "name": "",
          "type": "bytes32"
        }
      ],
      "stateMutability": "view",
      "type": "function"
    },
    {
      "inputs": [],
      "name": "OPERATOR_ROLE",
      "outputs": [
        {
          "internalType": "bytes32",
          "name": "",
          "type": "bytes32"
        }
      ],
      "stateMutability": "view",
      "type": "function"
    },
    {
      "inputs": [],
      "name": "PAUSER_ROLE",
      "outputs": [
        {
          "internalType": "bytes32",
          "name": "",
          "type": "bytes32"
        }
      ],
      "stateMutability": "view",
      "type": "function"
    },
    {
      "inputs": [],
      "name": "UPGRADER_ROLE",
      "outputs": [
        {
          "internalType": "bytes32",
          "name": "",
          "type": "bytes32"
        }
      ],
      "stateMutability": "view",
      "type": "function"
    },
    {
      "inputs": [
        {
          "internalType": "address",
          "name": "_account",
          "type": "address"
        }
      ],
      "name": "addBlacklist",
      "outputs": [],
      "stateMutability": "nonpayable",
      "type": "function"
    },
    {
      "inputs": [
        {
          "internalType": "address",
          "name": "_account",
          "type": "address"
        }
      ],
      "name": "addWhitelist",
      "outputs": [],
      "stateMutability": "nonpayable",
      "type": "function"
    },
    {
      "inputs": [
        {
          "internalType": "address",
          "name": "owner",
          "type": "address"
        },
        {
          "internalType": "address",
          "name": "spender",
          "type": "address"
        }
      ],
      "name": "allowance",
      "outputs": [
        {
          "internalType": "uint256",
          "name": "",
          "type": "uint256"
        }
      ],
      "stateMutability": "view",
      "type": "function"
    },
    {
      "inputs": [
        {
          "internalType": "address",
          "name": "spender",
          "type": "address"
        },
        {
          "internalType": "uint256",
          "name": "amount",
          "type": "uint256"
        }
      ],
      "name": "approve",
      "outputs": [
        {
          "internalType": "bool",
          "name": "",
          "type": "bool"
        }
      ],
      "stateMutability": "nonpayable",
      "type": "function"
    },
    {
      "inputs": [
        {
          "internalType": "address",
          "name": "account",
          "type": "address"
        }
      ],
      "name": "balanceOf",
      "outputs": [
        {
          "internalType": "uint256",
          "name": "",
          "type": "uint256"
        }
      ],
      "stateMutability": "view",
      "type": "function"
    },
    {
      "inputs": [
        {
          "internalType": "address",
          "name": "",
          "type": "address"
        }
      ],
      "name": "blacklists",
      "outputs": [
        {
          "internalType": "bool",
          "name": "",
          "type": "bool"
        }
      ],
      "stateMutability": "view",
      "type": "function"
    },
    {
      "inputs": [
        {
          "internalType": "uint256",
          "name": "amount",
          "type": "uint256"
        }
      ],
      "name": "burn",
      "outputs": [],
      "stateMutability": "nonpayable",
      "type": "function"
    },
    {
      "inputs": [
        {
          "internalType": "address",
          "name": "account",
          "type": "address"
        },
        {
          "internalType": "uint256",
          "name": "amount",
          "type": "uint256"
        }
      ],
      "name": "burnFrom",
      "outputs": [],
      "stateMutability": "nonpayable",
      "type": "function"
    },
    {
      "inputs": [],
      "name": "decimals",
      "outputs": [
        {
          "internalType": "uint8",
          "name": "",
          "type": "uint8"
        }
      ],
      "stateMutability": "pure",
      "type": "function"
    },
    {
      "inputs": [
        {
          "internalType": "address",
          "name": "spender",
          "type": "address"
        },
        {
          "internalType": "uint256",
          "name": "subtractedValue",
          "type": "uint256"
        }
      ],
      "name": "decreaseAllowance",
      "outputs": [
        {
          "internalType": "bool",
          "name": "",
          "type": "bool"
        }
      ],
      "stateMutability": "nonpayable",
      "type": "function"
    },
    {
      "inputs": [],
      "name": "feeCollector",
      "outputs": [
        {
          "internalType": "address",
          "name": "",
          "type": "address"
        }
      ],
      "stateMutability": "view",
      "type": "function"
    },
    {
      "inputs": [],
      "name": "feeMaxAmount",
      "outputs": [
        {
          "internalType": "uint256",
          "name": "",
          "type": "uint256"
        }
      ],
      "stateMutability": "view",
      "type": "function"
    },
    {
      "inputs": [],
      "name": "feeRate",
      "outputs": [
        {
          "internalType": "uint256",
          "name": "",
          "type": "uint256"
        }
      ],
      "stateMutability": "view",
      "type": "function"
    },
    {
      "inputs": [],
      "name": "feeStartAmount",
      "outputs": [
        {
          "internalType": "uint256",
          "name": "",
          "type": "uint256"
        }
      ],
      "stateMutability": "view",
      "type": "function"
    },
    {
      "inputs": [
        {
          "internalType": "bytes32",
          "name": "role",
          "type": "bytes32"
        }
      ],
      "name": "getRoleAdmin",
      "outputs": [
        {
          "internalType": "bytes32",
          "name": "",
          "type": "bytes32"
        }
      ],
      "stateMutability": "view",
      "type": "function"
    },
    {
      "inputs": [
        {
          "internalType": "bytes32",
          "name": "role",
          "type": "bytes32"
        },
        {
          "internalType": "address",
          "name": "account",
          "type": "address"
        }
      ],
      "name": "grantRole",
      "outputs": [],
      "stateMutability": "nonpayable",
      "type": "function"
    },
    {
      "inputs": [
        {
          "internalType": "bytes32",
          "name": "role",
          "type": "bytes32"
        },
        {
          "internalType": "address",
          "name": "account",
          "type": "address"
        }
      ],
      "name": "hasRole",
      "outputs": [
        {
          "internalType": "bool",
          "name": "",
          "type": "bool"
        }
      ],
      "stateMutability": "view",
      "type": "function"
    },
    {
      "inputs": [
        {
          "internalType": "address",
          "name": "spender",
          "type": "address"
        },
        {
          "internalType": "uint256",
          "name": "addedValue",
          "type": "uint256"
        }
      ],
      "name": "increaseAllowance",
      "outputs": [
        {
          "internalType": "bool",
          "name": "",
          "type": "bool"
        }
      ],
      "stateMutability": "nonpayable",
      "type": "function"
    },
    {
      "inputs": [
        {
          "internalType": "uint256",
          "name": "_feeStartAmount",
          "type": "uint256"
        },
        {
          "internalType": "uint256",
          "name": "_feeMaxAmount",
          "type": "uint256"
        },
        {
          "internalType": "uint256",
          "name": "_feeRate",
          "type": "uint256"
        },
        {
          "internalType": "address",
          "name": "_feeCollector",
          "type": "address"
        }
      ],
      "name": "initialize",
      "outputs": [],
      "stateMutability": "nonpayable",
      "type": "function"
    },
    {
      "inputs": [
        {
          "internalType": "address",
          "name": "to",
          "type": "address"
        },
        {
          "internalType": "uint256",
          "name": "amount",
          "type": "uint256"
        }
      ],
      "name": "mint",
      "outputs": [],
      "stateMutability": "nonpayable",
      "type": "function"
    },
    {
      "inputs": [],
      "name": "name",
      "outputs": [
        {
          "internalType": "string",
          "name": "",
          "type": "string"
        }
      ],
      "stateMutability": "view",
      "type": "function"
    },
    {
      "inputs": [],
      "name": "pause",
      "outputs": [],
      "stateMutability": "nonpayable",
      "type": "function"
    },
    {
      "inputs": [],
      "name": "paused",
      "outputs": [
        {
          "internalType": "bool",
          "name": "",
          "type": "bool"
        }
      ],
      "stateMutability": "view",
      "type": "function"
    },
    {
      "inputs": [],
      "name": "proxiableUUID",
      "outputs": [
        {
          "internalType": "bytes32",
          "name": "",
          "type": "bytes32"
        }
      ],
      "stateMutability": "view",
      "type": "function"
    },
    {
      "inputs": [
        {
          "internalType": "address",
          "name": "_account",
          "type": "address"
        }
      ],
      "name": "removeBlacklist",
      "outputs": [],
      "stateMutability": "nonpayable",
      "type": "function"
    },
    {
      "inputs": [
        {
          "internalType": "address",
          "name": "_account",
          "type": "address"
        }
      ],
      "name": "removeWhitelist",
      "outputs": [],
      "stateMutability": "nonpayable",
      "type": "function"
    },
    {
      "inputs": [
        {
          "internalType": "bytes32",
          "name": "role",
          "type": "bytes32"
        },
        {
          "internalType": "address",
          "name": "account",
          "type": "address"
        }
      ],
      "name": "renounceRole",
      "outputs": [],
      "stateMutability": "nonpayable",
      "type": "function"
    },
    {
      "inputs": [
        {
          "internalType": "bytes32",
          "name": "role",
          "type": "bytes32"
        },
        {
          "internalType": "address",
          "name": "account",
          "type": "address"
        }
      ],
      "name": "revokeRole",
      "outputs": [],
      "stateMutability": "nonpayable",
      "type": "function"
    },
    {
      "inputs": [
        {
          "internalType": "address",
          "name": "_account",
          "type": "address"
        }
      ],
      "name": "setFeeCollector",
      "outputs": [],
      "stateMutability": "nonpayable",
      "type": "function"
    },
    {
      "inputs": [
        {
          "internalType": "uint256",
          "name": "_amount",
          "type": "uint256"
        }
      ],
      "name": "setFeeMaxAmount",
      "outputs": [],
      "stateMutability": "nonpayable",
      "type": "function"
    },
    {
      "inputs": [
        {
          "internalType": "uint256",
          "name": "_amount",
          "type": "uint256"
        }
      ],
      "name": "setFeeRate",
      "outputs": [],
      "stateMutability": "nonpayable",
      "type": "function"
    },
    {
      "inputs": [
        {
          "internalType": "uint256",
          "name": "_amount",
          "type": "uint256"
        }
      ],
      "name": "setMinAmount",
      "outputs": [],
      "stateMutability": "nonpayable",
      "type": "function"
    },
    {
      "inputs": [
        {
          "internalType": "bytes4",
          "name": "interfaceId",
          "type": "bytes4"
        }
      ],
      "name": "supportsInterface",
      "outputs": [
        {
          "internalType": "bool",
          "name": "",
          "type": "bool"
        }
      ],
      "stateMutability": "view",
      "type": "function"
    },
    {
      "inputs": [],
      "name": "symbol",
      "outputs": [
        {
          "internalType": "string",
          "name": "",
          "type": "string"
        }
      ],
      "stateMutability": "view",
      "type": "function"
    },
    {
      "inputs": [],
      "name": "totalSupply",
      "outputs": [
        {
          "internalType": "uint256",
          "name": "",
          "type": "uint256"
        }
      ],
      "stateMutability": "view",
      "type": "function"
    },
    {
      "inputs": [
        {
          "internalType": "address",
          "name": "to",
          "type": "address"
        },
        {
          "internalType": "uint256",
          "name": "amount",
          "type": "uint256"
        }
      ],
      "name": "transfer",
      "outputs": [
        {
          "internalType": "bool",
          "name": "",
          "type": "bool"
        }
      ],
      "stateMutability": "nonpayable",
      "type": "function"
    },
    {
      "inputs": [
        {
          "internalType": "address",
          "name": "from",
          "type": "address"
        },
        {
          "internalType": "address",
          "name": "to",
          "type": "address"
        },
        {
          "internalType": "uint256",
          "name": "amount",
          "type": "uint256"
        }
      ],
      "name": "transferFrom",
      "outputs": [
        {
          "internalType": "bool",
          "name": "",
          "type": "bool"
        }
      ],
      "stateMutability": "nonpayable",
      "type": "function"
    },
    {
      "inputs": [],
      "name": "unpause",
      "outputs": [],
      "stateMutability": "nonpayable",
      "type": "function"
    },
    {
      "inputs": [
        {
          "internalType": "address",
          "name": "newImplementation",
          "type": "address"
        }
      ],
      "name": "upgradeTo",
      "outputs": [],
      "stateMutability": "nonpayable",
      "type": "function"
    },
    {
      "inputs": [
        {
          "internalType": "address",
          "name": "newImplementation",
          "type": "address"
        },
        {
          "internalType": "bytes",
          "name": "data",
          "type": "bytes"
        }
      ],
      "name": "upgradeToAndCall",
      "outputs": [],
      "stateMutability": "payable",
      "type": "function"
    },
    {
      "inputs": [
        {
          "internalType": "address",
          "name": "",
          "type": "address"
        }
      ],
      "name": "whitelists",
      "outputs": [
        {
          "internalType": "bool",
          "name": "",
          "type": "bool"
        }
      ],
      "stateMutability": "view",
      "type": "function"
    }
  ],
  "bytecode": "0x60a06040523060601b6080523480156200001857600080fd5b506200002362000029565b620000eb565b600054610100900460ff1615620000965760405162461bcd60e51b815260206004820152602760248201527f496e697469616c697a61626c653a20636f6e747261637420697320696e697469604482015266616c697a696e6760c81b606482015260840160405180910390fd5b60005460ff9081161015620000e9576000805460ff191660ff9081179091556040519081527f7f26b83ff96e1f2b6a682f133852f6798a09c465da95921460cefb38474024989060200160405180910390a15b565b60805160601c612d646200012660003960008181610d2101528181610d6101528181610ef701528181610f370152610fc60152612d646000f3fe60806040526004361061027d5760003560e01c806379cc67901161014f578063a9059cbb116100c1578063dd62ed3e1161007a578063dd62ed3e146107a4578063e63ab1e9146107c4578063eb91e651146107e6578063f5b541a614610806578063f72c0d8b14610828578063f80f5dd51461085c57600080fd5b8063a9059cbb146106c0578063bd102280146106e0578063c415b95c146106f7578063cbe351ca14610730578063d539139314610750578063d547741f1461078457600080fd5b806395d89b411161011357806395d89b411461061f578063978bbdb9146106345780639cfe42da1461064b578063a217fddf1461066b578063a42dce8014610680578063a457c2d7146106a057600080fd5b806379cc679014610593578063833f97be146105b35780638456cb59146105ca578063897b0637146105df57806391d14854146105ff57600080fd5b806336568abe116101f357806345596e2e116101ac57806345596e2e146104dd5780634f1ef286146104fd57806352d1902d146105105780635c975abb1461052557806370a082311461053d57806378c8cda71461057357600080fd5b806336568abe146104285780633659cfe61461044857806339509351146104685780633f4ba83a1461048857806340c10f191461049d57806342966c68146104bd57600080fd5b80631e7be210116102455780631e7be210146103495780631f8d519d1461037a57806323b872dd1461039c578063248a9ca3146103bc5780632f2ff15d146103ec578063313ce5671461040c57600080fd5b806301ffc9a71461028257806306fdde03146102b7578063095ea7b3146102d957806316c02129146102f957806318160ddd1461032a575b600080fd5b34801561028e57600080fd5b506102a261029d36600461272f565b61087c565b60405190151581526020015b60405180910390f35b3480156102c357600080fd5b506102cc6108b3565b6040516102ae9190612785565b3480156102e557600080fd5b506102a26102f43660046127d4565b610945565b34801561030557600080fd5b506102a26103143660046127fe565b6101966020526000908152604090205460ff1681565b34801561033657600080fd5b506035545b6040519081526020016102ae565b34801561035557600080fd5b506102a26103643660046127fe565b6101956020526000908152604090205460ff1681565b34801561038657600080fd5b5061039a610395366004612819565b61095d565b005b3480156103a857600080fd5b506102a26103b7366004612858565b610c02565b3480156103c857600080fd5b5061033b6103d7366004612894565b600090815260fb602052604090206001015490565b3480156103f857600080fd5b5061039a6104073660046128ad565b610c6e565b34801561041857600080fd5b50604051600681526020016102ae565b34801561043457600080fd5b5061039a6104433660046128ad565b610c98565b34801561045457600080fd5b5061039a6104633660046127fe565b610d16565b34801561047457600080fd5b506102a26104833660046127d4565b610df6565b34801561049457600080fd5b5061039a610e18565b3480156104a957600080fd5b5061039a6104b83660046127d4565b610e38565b3480156104c957600080fd5b5061039a6104d8366004612894565b610e6c565b3480156104e957600080fd5b5061039a6104f8366004612894565b610e76565b61039a61050b3660046128ef565b610eec565b34801561051c57600080fd5b5061033b610fb9565b34801561053157600080fd5b5060975460ff166102a2565b34801561054957600080fd5b5061033b6105583660046127fe565b6001600160a01b031660009081526033602052604090205490565b34801561057f57600080fd5b5061039a61058e3660046127fe565b61106c565b34801561059f57600080fd5b5061039a6105ae3660046127d4565b611165565b3480156105bf57600080fd5b5061033b6101915481565b3480156105d657600080fd5b5061039a61117a565b3480156105eb57600080fd5b5061039a6105fa366004612894565b61119a565b34801561060b57600080fd5b506102a261061a3660046128ad565b611208565b34801561062b57600080fd5b506102cc611233565b34801561064057600080fd5b5061033b6101935481565b34801561065757600080fd5b5061039a6106663660046127fe565b611242565b34801561067757600080fd5b5061033b600081565b34801561068c57600080fd5b5061039a61069b3660046127fe565b611336565b3480156106ac57600080fd5b506102a26106bb3660046127d4565b6113c3565b3480156106cc57600080fd5b506102a26106db3660046127d4565b611449565b3480156106ec57600080fd5b5061033b6101925481565b34801561070357600080fd5b5061019454610718906001600160a01b031681565b6040516001600160a01b0390911681526020016102ae565b34801561073c57600080fd5b5061039a61074b366004612894565b611496565b34801561075c57600080fd5b5061033b7f9f2df0fed2c77648de5860a4cc508cd0818c85b8b8a1ab4ceeef8d981c8956a681565b34801561079057600080fd5b5061039a61079f3660046128ad565b611504565b3480156107b057600080fd5b5061033b6107bf3660046129b1565b611529565b3480156107d057600080fd5b5061033b600080516020612ce883398151915281565b3480156107f257600080fd5b5061039a6108013660046127fe565b611554565b34801561081257600080fd5b5061033b600080516020612cc883398151915281565b34801561083457600080fd5b5061033b7f189ab7a9244df0848122154315af71fe140f3db0fe014031783b0946b8c9d2e381565b34801561086857600080fd5b5061039a6108773660046127fe565b61164d565b60006001600160e01b03198216637965db0b60e01b14806108ad57506301ffc9a760e01b6001600160e01b03198316145b92915050565b6060603680546108c2906129db565b80601f01602080910402602001604051908101604052809291908181526020018280546108ee906129db565b801561093b5780601f106109105761010080835404028352916020019161093b565b820191906000526020600020905b81548152906001019060200180831161091e57829003601f168201915b5050505050905090565b600033610953818585611741565b5060019392505050565b600054610100900460ff161580801561097d5750600054600160ff909116105b806109975750303b158015610997575060005460ff166001145b6109ff5760405162461bcd60e51b815260206004820152602e60248201527f496e697469616c697a61626c653a20636f6e747261637420697320616c72656160448201526d191e481a5b9a5d1a585b1a5e995960921b60648201526084015b60405180910390fd5b6000805460ff191660011790558015610a22576000805461ff0019166101001790555b610a6a6040518060400160405280600a81526020016921a72ca3902a37b5b2b760b11b81525060405180604001604052806004815260200163434e594760e01b815250611865565b610a72611896565b610a7a6118bf565b610a82611896565b610a8a611896565b610a956000336118ee565b610aad600080516020612ce8833981519152336118ee565b610ac5600080516020612cc8833981519152336118ee565b610aef7f9f2df0fed2c77648de5860a4cc508cd0818c85b8b8a1ab4ceeef8d981c8956a6336118ee565b610b197f189ab7a9244df0848122154315af71fe140f3db0fe014031783b0946b8c9d2e3336118ee565b61019185905561019284905560648310610b455760405162461bcd60e51b81526004016109f690612a16565b6101938390556001600160a01b038216610b995760405162461bcd60e51b815260206004820152601560248201527434b73b30b634b2103332b29031b7b63632b1ba37b960591b60448201526064016109f6565b61019480546001600160a01b0319166001600160a01b0384161790558015610bfb576000805461ff0019169055604051600181527f7f26b83ff96e1f2b6a682f133852f6798a09c465da95921460cefb38474024989060200160405180910390a15b5050505050565b600033610c10858285611974565b6000610c1c86856119ee565b905080610c3357610c2e868686611a61565b610c60565b610c478686610c428488612a54565b611a61565b61019454610c609087906001600160a01b031683611a61565b6001925050505b9392505050565b600082815260fb6020526040902060010154610c8981611c17565b610c9383836118ee565b505050565b6001600160a01b0381163314610d085760405162461bcd60e51b815260206004820152602f60248201527f416363657373436f6e74726f6c3a2063616e206f6e6c792072656e6f756e636560448201526e103937b632b9903337b91039b2b63360891b60648201526084016109f6565b610d128282611c21565b5050565b306001600160a01b037f0000000000000000000000000000000000000000000000000000000000000000161415610d5f5760405162461bcd60e51b81526004016109f690612a6b565b7f00000000000000000000000000000000000000000000000000000000000000006001600160a01b0316610da8600080516020612ca8833981519152546001600160a01b031690565b6001600160a01b031614610dce5760405162461bcd60e51b81526004016109f690612ab7565b610dd781611c88565b60408051600080825260208201909252610df391839190611cb2565b50565b600033610953818585610e098383611529565b610e139190612b03565b611741565b600080516020612ce8833981519152610e3081611c17565b610df3611e2c565b7f9f2df0fed2c77648de5860a4cc508cd0818c85b8b8a1ab4ceeef8d981c8956a6610e6281611c17565b610c938383611e7e565b610df33382611f4b565b600080516020612cc8833981519152610e8e81611c17565b60648210610eae5760405162461bcd60e51b81526004016109f690612a16565b6101938290556040518281527f74e4a578032013599764bac4c025ec6d6c6b24a5c2417c5100c13a04516eb971906020015b60405180910390a15050565b306001600160a01b037f0000000000000000000000000000000000000000000000000000000000000000161415610f355760405162461bcd60e51b81526004016109f690612a6b565b7f00000000000000000000000000000000000000000000000000000000000000006001600160a01b0316610f7e600080516020612ca8833981519152546001600160a01b031690565b6001600160a01b031614610fa45760405162461bcd60e51b81526004016109f690612ab7565b610fad82611c88565b610d1282826001611cb2565b6000306001600160a01b037f000000000000000000000000000000000000000000000000000000000000000016146110595760405162461bcd60e51b815260206004820152603860248201527f555550535570677261646561626c653a206d757374206e6f742062652063616c60448201527f6c6564207468726f7567682064656c656761746563616c6c000000000000000060648201526084016109f6565b50600080516020612ca883398151915290565b600080516020612cc883398151915261108481611c17565b6001600160a01b0382166110aa5760405162461bcd60e51b81526004016109f690612b1b565b6001600160a01b0382166000908152610195602052604090205460ff166111135760405162461bcd60e51b815260206004820152601860248201527f6163636f756e74206973206e6f742077686974656c697374000000000000000060448201526064016109f6565b6001600160a01b03821660008181526101956020908152604091829020805460ff1916905590519182527fa6667e187c57c5b0fa4e1122a695ed0754287513bcb4901fa6c1f44ba22c01879101610ee0565b611170823383611974565b610d128282611f4b565b600080516020612ce883398151915261119281611c17565b610df361208b565b600080516020612cc88339815191526111b281611c17565b600082116111d25760405162461bcd60e51b81526004016109f690612a16565b6101918290556040518281527f082006e1b22df9000831fa2fe95e4b46f3de4f6d8ef57b5b5ff7ab6c9a68b5ba90602001610ee0565b600091825260fb602090815260408084206001600160a01b0393909316845291905290205460ff1690565b6060603780546108c2906129db565b600080516020612cc883398151915261125a81611c17565b6001600160a01b0382166112805760405162461bcd60e51b81526004016109f690612b1b565b6001600160a01b0382166000908152610196602052604090205460ff16156112e15760405162461bcd60e51b81526020600482015260146024820152731858d8dbdd5b9d081a5cc8189b1858dadb1a5cdd60621b60448201526064016109f6565b6001600160a01b03821660008181526101966020908152604091829020805460ff1916600117905590519182527f7e239e822fa537514cc6b38d8350bde5ce06a8f9282c77161b926fc077a810269101610ee0565b600080516020612cc883398151915261134e81611c17565b6001600160a01b0382166113745760405162461bcd60e51b81526004016109f690612b1b565b61019480546001600160a01b0319166001600160a01b0384169081179091556040519081527ffa62ad95255db03db5eaabed7a43b93f377948b56cea8e12a747b6565582ed5e90602001610ee0565b600033816113d18286611529565b9050838110156114315760405162461bcd60e51b815260206004820152602560248201527f45524332303a2064656372656173656420616c6c6f77616e63652062656c6f77604482015264207a65726f60d81b60648201526084016109f6565b61143e8286868403611741565b506001949350505050565b6000338161145782856119ee565b90508061146e57611469828686611a61565b61143e565b61147d8286610c428488612a54565b6101945461143e9083906001600160a01b031683611a61565b600080516020612cc88339815191526114ae81611c17565b600082116114ce5760405162461bcd60e51b81526004016109f690612a16565b6101928290556040518281527f0a026e5f510bd032e066c1f6d3212fc9e972ae22a77f2e29db5be3f6fce0230890602001610ee0565b600082815260fb602052604090206001015461151f81611c17565b610c938383611c21565b6001600160a01b03918216600090815260346020908152604080832093909416825291909152205490565b600080516020612cc883398151915261156c81611c17565b6001600160a01b0382166115925760405162461bcd60e51b81526004016109f690612b1b565b6001600160a01b0382166000908152610196602052604090205460ff166115fb5760405162461bcd60e51b815260206004820152601860248201527f6163636f756e74206973206e6f7420626c61636b6c697374000000000000000060448201526064016109f6565b6001600160a01b03821660008181526101966020908152604091829020805460ff1916905590519182527f54646b2d47b5332deb93b310542f2c11bc9351e59950cdfb3ba518af28f13d299101610ee0565b600080516020612cc883398151915261166581611c17565b6001600160a01b03821661168b5760405162461bcd60e51b81526004016109f690612b1b565b6001600160a01b0382166000908152610195602052604090205460ff16156116ec5760405162461bcd60e51b81526020600482015260146024820152731858d8dbdd5b9d081a5cc81dda1a5d195b1a5cdd60621b60448201526064016109f6565b6001600160a01b03821660008181526101956020908152604091829020805460ff1916600117905590519182527fe463fa6bdecb16f96f58191d902152633214e760ea443684105a7eef1ad16b9d9101610ee0565b6001600160a01b0383166117a35760405162461bcd60e51b8152602060048201526024808201527f45524332303a20617070726f76652066726f6d20746865207a65726f206164646044820152637265737360e01b60648201526084016109f6565b6001600160a01b0382166118045760405162461bcd60e51b815260206004820152602260248201527f45524332303a20617070726f766520746f20746865207a65726f206164647265604482015261737360f01b60648201526084016109f6565b6001600160a01b0383811660008181526034602090815260408083209487168084529482529182902085905590518481527f8c5be1e5ebec7d5bd14f71427d1e84f3dd0314c0f7b2291e5b200ac8c7c3b925910160405180910390a3505050565b600054610100900460ff1661188c5760405162461bcd60e51b81526004016109f690612b44565b610d1282826120c8565b600054610100900460ff166118bd5760405162461bcd60e51b81526004016109f690612b44565b565b600054610100900460ff166118e65760405162461bcd60e51b81526004016109f690612b44565b6118bd612116565b6118f88282611208565b610d1257600082815260fb602090815260408083206001600160a01b03851684529091529020805460ff191660011790556119303390565b6001600160a01b0316816001600160a01b0316837f2f8788117e7eff1d82e926ec794901d17c78024a50270940304540a733656f0d60405160405180910390a45050565b60006119808484611529565b905060001981146119e857818110156119db5760405162461bcd60e51b815260206004820152601d60248201527f45524332303a20696e73756666696369656e7420616c6c6f77616e636500000060448201526064016109f6565b6119e88484848403611741565b50505050565b6001600160a01b03821660009081526101956020526040812054819060ff1615611a1c5760009150506108ad565b610191548310610c67576127106101935484611a389190612b8f565b611a429190612bae565b9050610192548111611a545780611a59565b610192545b949350505050565b6001600160a01b038316611ac55760405162461bcd60e51b815260206004820152602560248201527f45524332303a207472616e736665722066726f6d20746865207a65726f206164604482015264647265737360d81b60648201526084016109f6565b6001600160a01b038216611b275760405162461bcd60e51b815260206004820152602360248201527f45524332303a207472616e7366657220746f20746865207a65726f206164647260448201526265737360e81b60648201526084016109f6565b611b32838383612149565b6001600160a01b03831660009081526033602052604090205481811015611baa5760405162461bcd60e51b815260206004820152602660248201527f45524332303a207472616e7366657220616d6f756e7420657863656564732062604482015265616c616e636560d01b60648201526084016109f6565b6001600160a01b0380851660008181526033602052604080822086860390559286168082529083902080548601905591517fddf252ad1be2c89b69c2b068fc378daa952ba7f163c4a11628f55a4df523b3ef90611c0a9086815260200190565b60405180910390a36119e8565b610df381336121cd565b611c2b8282611208565b15610d1257600082815260fb602090815260408083206001600160a01b0385168085529252808320805460ff1916905551339285917ff6391f5c32d9c69d2a47ea670b442974b53935d1edc7fd64eb21e047a839171b9190a45050565b7f189ab7a9244df0848122154315af71fe140f3db0fe014031783b0946b8c9d2e3610d1281611c17565b7f4910fdfa16fed3260ed0e7147f7cc6da11a60208b5b9406d12a635614ffd91435460ff1615611ce557610c9383612226565b826001600160a01b03166352d1902d6040518163ffffffff1660e01b815260040160206040518083038186803b158015611d1e57600080fd5b505afa925050508015611d4e575060408051601f3d908101601f19168201909252611d4b91810190612bd0565b60015b611db15760405162461bcd60e51b815260206004820152602e60248201527f45524331393637557067726164653a206e657720696d706c656d656e7461746960448201526d6f6e206973206e6f74205555505360901b60648201526084016109f6565b600080516020612ca88339815191528114611e205760405162461bcd60e51b815260206004820152602960248201527f45524331393637557067726164653a20756e737570706f727465642070726f786044820152681a58589b195555525160ba1b60648201526084016109f6565b50610c938383836122c2565b611e346122e7565b6097805460ff191690557f5db9ee0a495bf2e6ff9c91a7834c1ba4fdd244a5e8aa4e537bd38aeae4b073aa335b6040516001600160a01b03909116815260200160405180910390a1565b6001600160a01b038216611ed45760405162461bcd60e51b815260206004820152601f60248201527f45524332303a206d696e7420746f20746865207a65726f20616464726573730060448201526064016109f6565b611ee060008383612149565b8060356000828254611ef29190612b03565b90915550506001600160a01b0382166000818152603360209081526040808320805486019055518481527fddf252ad1be2c89b69c2b068fc378daa952ba7f163c4a11628f55a4df523b3ef910160405180910390a35050565b6001600160a01b038216611fab5760405162461bcd60e51b815260206004820152602160248201527f45524332303a206275726e2066726f6d20746865207a65726f206164647265736044820152607360f81b60648201526084016109f6565b611fb782600083612149565b6001600160a01b0382166000908152603360205260409020548181101561202b5760405162461bcd60e51b815260206004820152602260248201527f45524332303a206275726e20616d6f756e7420657863656564732062616c616e604482015261636560f01b60648201526084016109f6565b6001600160a01b03831660008181526033602090815260408083208686039055603580548790039055518581529192917fddf252ad1be2c89b69c2b068fc378daa952ba7f163c4a11628f55a4df523b3ef910160405180910390a3505050565b612093612330565b6097805460ff191660011790557f62e78cea01bee320cd4e420270b5ea74000d11b0c9f74754ebdbfc544b05a258611e613390565b600054610100900460ff166120ef5760405162461bcd60e51b81526004016109f690612b44565b8151612102906036906020850190612696565b508051610c93906037906020840190612696565b600054610100900460ff1661213d5760405162461bcd60e51b81526004016109f690612b44565b6097805460ff19169055565b612151612330565b6001600160a01b0383166000908152610196602052604090205460ff1615610c935760405162461bcd60e51b815260206004820152602960248201527f626c61636b6c6973746564206163636f756e742063616e6e6f74207472616e736044820152683332b9103a37b5b2b760b91b60648201526084016109f6565b6121d78282611208565b610d12576121e481612376565b6121ef836020612388565b604051602001612200929190612be9565b60408051601f198184030181529082905262461bcd60e51b82526109f691600401612785565b6001600160a01b0381163b6122935760405162461bcd60e51b815260206004820152602d60248201527f455243313936373a206e657720696d706c656d656e746174696f6e206973206e60448201526c1bdd08184818dbdb9d1c9858dd609a1b60648201526084016109f6565b600080516020612ca883398151915280546001600160a01b0319166001600160a01b0392909216919091179055565b6122cb83612524565b6000825111806122d85750805b15610c93576119e88383612564565b60975460ff166118bd5760405162461bcd60e51b815260206004820152601460248201527314185d5cd8589b194e881b9bdd081c185d5cd95960621b60448201526064016109f6565b60975460ff16156118bd5760405162461bcd60e51b815260206004820152601060248201526f14185d5cd8589b194e881c185d5cd95960821b60448201526064016109f6565b60606108ad6001600160a01b03831660145b60606000612397836002612b8f565b6123a2906002612b03565b67ffffffffffffffff8111156123ba576123ba6128d9565b6040519080825280601f01601f1916602001820160405280156123e4576020820181803683370190505b509050600360fc1b816000815181106123ff576123ff612c5e565b60200101906001600160f81b031916908160001a905350600f60fb1b8160018151811061242e5761242e612c5e565b60200101906001600160f81b031916908160001a9053506000612452846002612b8f565b61245d906001612b03565b90505b60018111156124d5576f181899199a1a9b1b9c1cb0b131b232b360811b85600f166010811061249157612491612c5e565b1a60f81b8282815181106124a7576124a7612c5e565b60200101906001600160f81b031916908160001a90535060049490941c936124ce81612c74565b9050612460565b508315610c675760405162461bcd60e51b815260206004820181905260248201527f537472696e67733a20686578206c656e67746820696e73756666696369656e7460448201526064016109f6565b61252d81612226565b6040516001600160a01b038216907fbc7cd75a20ee27fd9adebab32041f755214dbc6bffa90cc0225b39da2e5c2d3b90600090a250565b60606001600160a01b0383163b6125cc5760405162461bcd60e51b815260206004820152602660248201527f416464726573733a2064656c65676174652063616c6c20746f206e6f6e2d636f6044820152651b9d1c9858dd60d21b60648201526084016109f6565b600080846001600160a01b0316846040516125e79190612c8b565b600060405180830381855af49150503d8060008114612622576040519150601f19603f3d011682016040523d82523d6000602084013e612627565b606091505b509150915061264f8282604051806060016040528060278152602001612d0860279139612658565b95945050505050565b60608315612667575081610c67565b610c67838381511561267c5781518083602001fd5b8060405162461bcd60e51b81526004016109f69190612785565b8280546126a2906129db565b90600052602060002090601f0160209004810192826126c4576000855561270a565b82601f106126dd57805160ff191683800117855561270a565b8280016001018555821561270a579182015b8281111561270a5782518255916020019190600101906126ef565b5061271692915061271a565b5090565b5b80821115612716576000815560010161271b565b60006020828403121561274157600080fd5b81356001600160e01b031981168114610c6757600080fd5b60005b8381101561277457818101518382015260200161275c565b838111156119e85750506000910152565b60208152600082518060208401526127a4816040850160208701612759565b601f01601f19169190910160400192915050565b80356001600160a01b03811681146127cf57600080fd5b919050565b600080604083850312156127e757600080fd5b6127f0836127b8565b946020939093013593505050565b60006020828403121561281057600080fd5b610c67826127b8565b6000806000806080858703121561282f57600080fd5b84359350602085013592506040850135915061284d606086016127b8565b905092959194509250565b60008060006060848603121561286d57600080fd5b612876846127b8565b9250612884602085016127b8565b9150604084013590509250925092565b6000602082840312156128a657600080fd5b5035919050565b600080604083850312156128c057600080fd5b823591506128d0602084016127b8565b90509250929050565b634e487b7160e01b600052604160045260246000fd5b6000806040838503121561290257600080fd5b61290b836127b8565b9150602083013567ffffffffffffffff8082111561292857600080fd5b818501915085601f83011261293c57600080fd5b81358181111561294e5761294e6128d9565b604051601f8201601f19908116603f01168101908382118183101715612976576129766128d9565b8160405282815288602084870101111561298f57600080fd5b8260208601602083013760006020848301015280955050505050509250929050565b600080604083850312156129c457600080fd5b6129cd836127b8565b91506128d0602084016127b8565b600181811c908216806129ef57607f821691505b60208210811415612a1057634e487b7160e01b600052602260045260246000fd5b50919050565b6020808252600e908201526d1a5b9d985b1a5908185b5bdd5b9d60921b604082015260600190565b634e487b7160e01b600052601160045260246000fd5b600082821015612a6657612a66612a3e565b500390565b6020808252602c908201527f46756e6374696f6e206d7573742062652063616c6c6564207468726f7567682060408201526b19195b1959d85d1958d85b1b60a21b606082015260800190565b6020808252602c908201527f46756e6374696f6e206d7573742062652063616c6c6564207468726f7567682060408201526b6163746976652070726f787960a01b606082015260800190565b60008219821115612b1657612b16612a3e565b500190565b6020808252600f908201526e1a5b9d985b1a59081858d8dbdd5b9d608a1b604082015260600190565b6020808252602b908201527f496e697469616c697a61626c653a20636f6e7472616374206973206e6f74206960408201526a6e697469616c697a696e6760a81b606082015260800190565b6000816000190483118215151615612ba957612ba9612a3e565b500290565b600082612bcb57634e487b7160e01b600052601260045260246000fd5b500490565b600060208284031215612be257600080fd5b5051919050565b7f416363657373436f6e74726f6c3a206163636f756e7420000000000000000000815260008351612c21816017850160208801612759565b7001034b99036b4b9b9b4b733903937b6329607d1b6017918401918201528351612c52816028840160208801612759565b01602801949350505050565b634e487b7160e01b600052603260045260246000fd5b600081612c8357612c83612a3e565b506000190190565b60008251612c9d818460208701612759565b919091019291505056fe360894a13ba1a3210667c828492db98dca3e2076cc3735a920a3ca505d382bbc97667070c54ef182b0f5858b034beac1b6f3089aa2d3188bb1e8929f4fa9b92965d7a28e3265b37a6474929f336521b332c1681b933f6cb9f3376673440d862a416464726573733a206c6f772d6c6576656c2064656c65676174652063616c6c206661696c6564a2646970667358221220344f3f6c11f0c2c3f69ed82f8c230d76253637c431fd685cbefa0ba7f98600b664736f6c63430008080033",
  "linkReferences": {},
  "deployedLinkReferences": {}
}